{
  "_format": "hh-sol-artifact-1",
  "contractName": "DegreeIssuance",
  "sourceName": "contracts/DegreeIssuance.sol",
  "abi": [
    {
      "inputs": [
        {
          "internalType": "address",
          "name": "_DITToken",
          "type": "address"
        }
      ],
      "stateMutability": "nonpayable",
      "type": "constructor"
    },
    {
      "inputs": [
        {
          "internalType": "address",
          "name": "sender",
          "type": "address"
        },
        {
          "internalType": "uint256",
          "name": "tokenId",
          "type": "uint256"
        },
        {
          "internalType": "address",
          "name": "owner",
          "type": "address"
        }
      ],
      "name": "ERC721IncorrectOwner",
      "type": "error"
    },
    {
      "inputs": [
        {
          "internalType": "address",
          "name": "operator",
          "type": "address"
        },
        {
          "internalType": "uint256",
          "name": "tokenId",
          "type": "uint256"
        }
      ],
      "name": "ERC721InsufficientApproval",
      "type": "error"
    },
    {
      "inputs": [
        {
          "internalType": "address",
          "name": "approver",
          "type": "address"
        }
      ],
      "name": "ERC721InvalidApprover",
      "type": "error"
    },
    {
      "inputs": [
        {
          "internalType": "address",
          "name": "operator",
          "type": "address"
        }
      ],
      "name": "ERC721InvalidOperator",
      "type": "error"
    },
    {
      "inputs": [
        {
          "internalType": "address",
          "name": "owner",
          "type": "address"
        }
      ],
      "name": "ERC721InvalidOwner",
      "type": "error"
    },
    {
      "inputs": [
        {
          "internalType": "address",
          "name": "receiver",
          "type": "address"
        }
      ],
      "name": "ERC721InvalidReceiver",
      "type": "error"
    },
    {
      "inputs": [
        {
          "internalType": "address",
          "name": "sender",
          "type": "address"
        }
      ],
      "name": "ERC721InvalidSender",
      "type": "error"
    },
    {
      "inputs": [
        {
          "internalType": "uint256",
          "name": "tokenId",
          "type": "uint256"
        }
      ],
      "name": "ERC721NonexistentToken",
      "type": "error"
    },
    {
      "inputs": [
        {
          "internalType": "address",
          "name": "token",
          "type": "address"
        }
      ],
      "name": "SafeERC20FailedOperation",
      "type": "error"
    },
    {
      "anonymous": false,
      "inputs": [
        {
          "indexed": true,
          "internalType": "address",
          "name": "owner",
          "type": "address"
        },
        {
          "indexed": true,
          "internalType": "address",
          "name": "approved",
          "type": "address"
        },
        {
          "indexed": true,
          "internalType": "uint256",
          "name": "tokenId",
          "type": "uint256"
        }
      ],
      "name": "Approval",
      "type": "event"
    },
    {
      "anonymous": false,
      "inputs": [
        {
          "indexed": true,
          "internalType": "address",
          "name": "owner",
          "type": "address"
        },
        {
          "indexed": true,
          "internalType": "address",
          "name": "operator",
          "type": "address"
        },
        {
          "indexed": false,
          "internalType": "bool",
          "name": "approved",
          "type": "bool"
        }
      ],
      "name": "ApprovalForAll",
      "type": "event"
    },
    {
      "anonymous": false,
      "inputs": [
        {
          "indexed": false,
          "internalType": "uint256",
          "name": "_fromTokenId",
          "type": "uint256"
        },
        {
          "indexed": false,
          "internalType": "uint256",
          "name": "_toTokenId",
          "type": "uint256"
        }
      ],
      "name": "BatchMetadataUpdate",
      "type": "event"
    },
    {
      "anonymous": false,
      "inputs": [
        {
          "indexed": false,
          "internalType": "uint256",
          "name": "_tokenId",
          "type": "uint256"
        }
      ],
      "name": "MetadataUpdate",
      "type": "event"
    },
    {
      "anonymous": false,
      "inputs": [
        {
          "indexed": false,
          "internalType": "address",
          "name": "to",
          "type": "address"
        },
        {
          "indexed": false,
          "internalType": "uint256",
          "name": "tokenId",
          "type": "uint256"
        }
      ],
      "name": "NftMinted",
      "type": "event"
    },
    {
      "anonymous": false,
      "inputs": [
        {
          "indexed": false,
          "internalType": "address",
          "name": "buyer",
          "type": "address"
        },
        {
          "indexed": false,
          "internalType": "uint256",
          "name": "tokenPrice",
          "type": "uint256"
        },
        {
          "indexed": false,
          "internalType": "uint256",
          "name": "tokenQuantity",
          "type": "uint256"
        }
      ],
      "name": "TokenBought",
      "type": "event"
    },
    {
      "anonymous": false,
      "inputs": [
        {
          "indexed": true,
          "internalType": "address",
          "name": "from",
          "type": "address"
        },
        {
          "indexed": true,
          "internalType": "address",
          "name": "to",
          "type": "address"
        },
        {
          "indexed": true,
          "internalType": "uint256",
          "name": "tokenId",
          "type": "uint256"
        }
      ],
      "name": "Transfer",
      "type": "event"
    },
    {
      "inputs": [],
      "name": "DITPrice",
      "outputs": [
        {
          "internalType": "uint256",
          "name": "",
          "type": "uint256"
        }
      ],
      "stateMutability": "view",
      "type": "function"
    },
    {
      "inputs": [],
      "name": "DITToken",
      "outputs": [
        {
          "internalType": "contract IERC20",
          "name": "",
          "type": "address"
        }
      ],
      "stateMutability": "view",
      "type": "function"
    },
    {
      "inputs": [
        {
          "internalType": "address",
          "name": "to",
          "type": "address"
        },
        {
          "internalType": "uint256",
          "name": "tokenId",
          "type": "uint256"
        }
      ],
      "name": "approve",
      "outputs": [],
      "stateMutability": "nonpayable",
      "type": "function"
    },
    {
      "inputs": [
        {
          "internalType": "address",
          "name": "owner",
          "type": "address"
        }
      ],
      "name": "balanceOf",
      "outputs": [
        {
          "internalType": "uint256",
          "name": "",
          "type": "uint256"
        }
      ],
      "stateMutability": "view",
      "type": "function"
    },
    {
      "inputs": [
        {
          "internalType": "uint256",
          "name": "_tokenPrice",
          "type": "uint256"
        },
        {
          "internalType": "uint256",
          "name": "_tokenQuantity",
          "type": "uint256"
        }
      ],
      "name": "buyToken",
      "outputs": [],
      "stateMutability": "payable",
      "type": "function"
    },
    {
      "inputs": [
        {
          "internalType": "address",
          "name": "_to",
          "type": "address"
        },
        {
          "internalType": "string",
          "name": "_tokenUri",
          "type": "string"
        }
      ],
      "name": "certificateMint",
      "outputs": [],
      "stateMutability": "nonpayable",
      "type": "function"
    },
    {
      "inputs": [
        {
          "internalType": "uint256",
          "name": "tokenId",
          "type": "uint256"
        }
      ],
      "name": "getApproved",
      "outputs": [
        {
          "internalType": "address",
          "name": "",
          "type": "address"
        }
      ],
      "stateMutability": "view",
      "type": "function"
    },
    {
      "inputs": [
        {
          "internalType": "address",
          "name": "owner",
          "type": "address"
        },
        {
          "internalType": "address",
          "name": "operator",
          "type": "address"
        }
      ],
      "name": "isApprovedForAll",
      "outputs": [
        {
          "internalType": "bool",
          "name": "",
          "type": "bool"
        }
      ],
      "stateMutability": "view",
      "type": "function"
    },
    {
      "inputs": [],
      "name": "name",
      "outputs": [
        {
          "internalType": "string",
          "name": "",
          "type": "string"
        }
      ],
      "stateMutability": "view",
      "type": "function"
    },
    {
      "inputs": [],
      "name": "nftCount",
      "outputs": [
        {
          "internalType": "uint256",
          "name": "",
          "type": "uint256"
        }
      ],
      "stateMutability": "view",
      "type": "function"
    },
    {
      "inputs": [
        {
          "internalType": "uint256",
          "name": "",
          "type": "uint256"
        }
      ],
      "name": "nftMinted",
      "outputs": [
        {
          "internalType": "address",
          "name": "",
          "type": "address"
        }
      ],
      "stateMutability": "view",
      "type": "function"
    },
    {
      "inputs": [],
      "name": "owner",
      "outputs": [
        {
          "internalType": "address",
          "name": "",
          "type": "address"
        }
      ],
      "stateMutability": "view",
      "type": "function"
    },
    {
      "inputs": [
        {
          "internalType": "uint256",
          "name": "tokenId",
          "type": "uint256"
        }
      ],
      "name": "ownerOf",
      "outputs": [
        {
          "internalType": "address",
          "name": "",
          "type": "address"
        }
      ],
      "stateMutability": "view",
      "type": "function"
    },
    {
      "inputs": [
        {
          "internalType": "address",
          "name": "from",
          "type": "address"
        },
        {
          "internalType": "address",
          "name": "to",
          "type": "address"
        },
        {
          "internalType": "uint256",
          "name": "tokenId",
          "type": "uint256"
        }
      ],
      "name": "safeTransferFrom",
      "outputs": [],
      "stateMutability": "nonpayable",
      "type": "function"
    },
    {
      "inputs": [
        {
          "internalType": "address",
          "name": "from",
          "type": "address"
        },
        {
          "internalType": "address",
          "name": "to",
          "type": "address"
        },
        {
          "internalType": "uint256",
          "name": "tokenId",
          "type": "uint256"
        },
        {
          "internalType": "bytes",
          "name": "data",
          "type": "bytes"
        }
      ],
      "name": "safeTransferFrom",
      "outputs": [],
      "stateMutability": "nonpayable",
      "type": "function"
    },
    {
      "inputs": [
        {
          "internalType": "address",
          "name": "operator",
          "type": "address"
        },
        {
          "internalType": "bool",
          "name": "approved",
          "type": "bool"
        }
      ],
      "name": "setApprovalForAll",
      "outputs": [],
      "stateMutability": "nonpayable",
      "type": "function"
    },
    {
      "inputs": [
        {
          "internalType": "bytes4",
          "name": "interfaceId",
          "type": "bytes4"
        }
      ],
      "name": "supportsInterface",
      "outputs": [
        {
          "internalType": "bool",
          "name": "",
          "type": "bool"
        }
      ],
      "stateMutability": "view",
      "type": "function"
    },
    {
      "inputs": [],
      "name": "symbol",
      "outputs": [
        {
          "internalType": "string",
          "name": "",
          "type": "string"
        }
      ],
      "stateMutability": "view",
      "type": "function"
    },
    {
      "inputs": [
        {
          "internalType": "address",
          "name": "",
          "type": "address"
        }
      ],
      "name": "tokenHolder",
      "outputs": [
        {
          "internalType": "uint256",
          "name": "",
          "type": "uint256"
        }
      ],
      "stateMutability": "view",
      "type": "function"
    },
    {
      "inputs": [
        {
          "internalType": "uint256",
          "name": "tokenId",
          "type": "uint256"
        }
      ],
      "name": "tokenURI",
      "outputs": [
        {
          "internalType": "string",
          "name": "",
          "type": "string"
        }
      ],
      "stateMutability": "view",
      "type": "function"
    },
    {
      "inputs": [
        {
          "internalType": "address",
          "name": "from",
          "type": "address"
        },
        {
          "internalType": "address",
          "name": "to",
          "type": "address"
        },
        {
          "internalType": "uint256",
          "name": "tokenId",
          "type": "uint256"
        }
      ],
      "name": "transferFrom",
      "outputs": [],
      "stateMutability": "nonpayable",
      "type": "function"
    }
  ],
  "bytecode": "0x608060405266470de4df82000060095534801561001b57600080fd5b506040516133e43803806133e4833981810160405281019061003d91906101b6565b6040518060400160405280601681526020017f53747564656e742043657274696669636174654e4654000000000000000000008152506040518060400160405280600381526020017f534354000000000000000000000000000000000000000000000000000000000081525081600090816100b89190610433565b5080600190816100c89190610433565b50505080600860006101000a81548173ffffffffffffffffffffffffffffffffffffffff021916908373ffffffffffffffffffffffffffffffffffffffff16021790555033600760006101000a81548173ffffffffffffffffffffffffffffffffffffffff021916908373ffffffffffffffffffffffffffffffffffffffff16021790555050610505565b600080fd5b600073ffffffffffffffffffffffffffffffffffffffff82169050919050565b600061018382610158565b9050919050565b61019381610178565b811461019e57600080fd5b50565b6000815190506101b08161018a565b92915050565b6000602082840312156101cc576101cb610153565b5b60006101da848285016101a1565b91505092915050565b600081519050919050565b7f4e487b7100000000000000000000000000000000000000000000000000000000600052604160045260246000fd5b7f4e487b7100000000000000000000000000000000000000000000000000000000600052602260045260246000fd5b6000600282049050600182168061026457607f821691505b6020821081036102775761027661021d565b5b50919050565b60008190508160005260206000209050919050565b60006020601f8301049050919050565b600082821b905092915050565b6000600883026102df7fffffffffffffffffffffffffffffffffffffffffffffffffffffffffffffffff826102a2565b6102e986836102a2565b95508019841693508086168417925050509392505050565b6000819050919050565b6000819050919050565b600061033061032b61032684610301565b61030b565b610301565b9050919050565b6000819050919050565b61034a83610315565b61035e61035682610337565b8484546102af565b825550505050565b600090565b610373610366565b61037e818484610341565b505050565b5b818110156103a25761039760008261036b565b600181019050610384565b5050565b601f8211156103e7576103b88161027d565b6103c184610292565b810160208510156103d0578190505b6103e46103dc85610292565b830182610383565b50505b505050565b600082821c905092915050565b600061040a600019846008026103ec565b1980831691505092915050565b600061042383836103f9565b9150826002028217905092915050565b61043c826101e3565b67ffffffffffffffff811115610455576104546101ee565b5b61045f825461024c565b61046a8282856103a6565b600060209050601f83116001811461049d576000841561048b578287015190505b6104958582610417565b8655506104fd565b601f1984166104ab8661027d565b60005b828110156104d3578489015182556001820191506020850194506020810190506104ae565b868310156104f057848901516104ec601f8916826103f9565b8355505b6001600288020188555050505b505050505050565b612ed0806105146000396000f3fe60806040526004361061012a5760003560e01c806370a08231116100ab578063b88d4fde1161006f578063b88d4fde146103e5578063bbcd1f2b1461040e578063c87b56dd14610437578063e985e9c514610474578063fc7ebc3a146104b1578063ffd68f15146104ee5761012a565b806370a08231146102fe57806379c77cc51461033b5780638da5cb5b1461036657806395d89b4114610391578063a22cb465146103bc5761012a565b80630af2c6ca116100f25780630af2c6ca1461021957806323b872dd1461024457806342842e0e1461026d57806355620242146102965780636352211e146102c15761012a565b806301ffc9a71461012f578063057466ea1461016c57806306fdde0314610188578063081812fc146101b3578063095ea7b3146101f0575b600080fd5b34801561013b57600080fd5b5061015660048036038101906101519190611fc1565b61052b565b6040516101639190612009565b60405180910390f35b6101866004803603810190610181919061205a565b61053d565b005b34801561019457600080fd5b5061019d6106b2565b6040516101aa919061212a565b60405180910390f35b3480156101bf57600080fd5b506101da60048036038101906101d5919061214c565b610744565b6040516101e791906121ba565b60405180910390f35b3480156101fc57600080fd5b5061021760048036038101906102129190612201565b610760565b005b34801561022557600080fd5b5061022e610776565b60405161023b9190612250565b60405180910390f35b34801561025057600080fd5b5061026b6004803603810190610266919061226b565b61077c565b005b34801561027957600080fd5b50610294600480360381019061028f919061226b565b61087e565b005b3480156102a257600080fd5b506102ab61089e565b6040516102b89190612250565b60405180910390f35b3480156102cd57600080fd5b506102e860048036038101906102e3919061214c565b6108a4565b6040516102f591906121ba565b60405180910390f35b34801561030a57600080fd5b50610325600480360381019061032091906122be565b6108b6565b6040516103329190612250565b60405180910390f35b34801561034757600080fd5b50610350610970565b60405161035d919061234a565b60405180910390f35b34801561037257600080fd5b5061037b610996565b60405161038891906121ba565b60405180910390f35b34801561039d57600080fd5b506103a66109bc565b6040516103b3919061212a565b60405180910390f35b3480156103c857600080fd5b506103e360048036038101906103de9190612391565b610a4e565b005b3480156103f157600080fd5b5061040c60048036038101906104079190612506565b610a64565b005b34801561041a57600080fd5b506104356004803603810190610430919061262a565b610a89565b005b34801561044357600080fd5b5061045e6004803603810190610459919061214c565b610cab565b60405161046b919061212a565b60405180910390f35b34801561048057600080fd5b5061049b60048036038101906104969190612686565b610cbd565b6040516104a89190612009565b60405180910390f35b3480156104bd57600080fd5b506104d860048036038101906104d391906122be565b610d51565b6040516104e59190612250565b60405180910390f35b3480156104fa57600080fd5b506105156004803603810190610510919061214c565b610d69565b60405161052291906121ba565b60405180910390f35b600061053682610d9c565b9050919050565b6009548161054b91906126f5565b82101561058d576040517f08c379a000000000000000000000000000000000000000000000000000000000815260040161058490612783565b60405180910390fd5b600081116105d0576040517f08c379a00000000000000000000000000000000000000000000000000000000081526004016105c7906127ef565b60405180910390fd5b61061d3382600860009054906101000a900473ffffffffffffffffffffffffffffffffffffffff1673ffffffffffffffffffffffffffffffffffffffff16610dfd9092919063ffffffff16565b80600b60003373ffffffffffffffffffffffffffffffffffffffff1673ffffffffffffffffffffffffffffffffffffffff168152602001908152602001600020600082825461066c919061280f565b925050819055507f28cab0d660ed8aedd61a8c9db00b97f6a2d67e07d87795994f440b18bc5f1aa33383836040516106a693929190612843565b60405180910390a15050565b6060600080546106c1906128a9565b80601f01602080910402602001604051908101604052809291908181526020018280546106ed906128a9565b801561073a5780601f1061070f5761010080835404028352916020019161073a565b820191906000526020600020905b81548152906001019060200180831161071d57829003601f168201915b5050505050905090565b600061074f82610e7c565b5061075982610f04565b9050919050565b610772828261076d610f41565b610f49565b5050565b600a5481565b600073ffffffffffffffffffffffffffffffffffffffff168273ffffffffffffffffffffffffffffffffffffffff16036107ee5760006040517f64a0ae920000000000000000000000000000000000000000000000000000000081526004016107e591906121ba565b60405180910390fd5b600061080283836107fd610f41565b610f5b565b90508373ffffffffffffffffffffffffffffffffffffffff168173ffffffffffffffffffffffffffffffffffffffff1614610878578382826040517f64283d7b00000000000000000000000000000000000000000000000000000000815260040161086f939291906128da565b60405180910390fd5b50505050565b61089983838360405180602001604052806000815250610a64565b505050565b60095481565b60006108af82610e7c565b9050919050565b60008073ffffffffffffffffffffffffffffffffffffffff168273ffffffffffffffffffffffffffffffffffffffff16036109295760006040517f89c62b6400000000000000000000000000000000000000000000000000000000815260040161092091906121ba565b60405180910390fd5b600360008373ffffffffffffffffffffffffffffffffffffffff1673ffffffffffffffffffffffffffffffffffffffff168152602001908152602001600020549050919050565b600860009054906101000a900473ffffffffffffffffffffffffffffffffffffffff1681565b600760009054906101000a900473ffffffffffffffffffffffffffffffffffffffff1681565b6060600180546109cb906128a9565b80601f01602080910402602001604051908101604052809291908181526020018280546109f7906128a9565b8015610a445780601f10610a1957610100808354040283529160200191610a44565b820191906000526020600020905b815481529060010190602001808311610a2757829003601f168201915b5050505050905090565b610a60610a59610f41565b8383611175565b5050565b610a6f84848461077c565b610a83610a7a610f41565b858585856112e4565b50505050565b600073ffffffffffffffffffffffffffffffffffffffff168273ffffffffffffffffffffffffffffffffffffffff1603610af8576040517f08c379a0000000000000000000000000000000000000000000000000000000008152600401610aef9061295d565b60405180910390fd5b6009546064610b0791906126f5565b600b60003373ffffffffffffffffffffffffffffffffffffffff1673ffffffffffffffffffffffffffffffffffffffff168152602001908152602001600020541015610b88576040517f08c379a0000000000000000000000000000000000000000000000000000000008152600401610b7f906129ef565b60405180910390fd5b6000600a6000815480929190610b9d90612a0f565b9190505590506009546064610bb291906126f5565b600b60003373ffffffffffffffffffffffffffffffffffffffff1673ffffffffffffffffffffffffffffffffffffffff1681526020019081526020016000206000828254610c009190612a57565b92505081905550610c118382611495565b610c1b81836114b3565b33600c600083815260200190815260200160002060006101000a81548173ffffffffffffffffffffffffffffffffffffffff021916908373ffffffffffffffffffffffffffffffffffffffff1602179055507ff2b290a76feb54be358b555507421d765609171aefa0646f109a653228ff81b88382604051610c9e929190612a8b565b60405180910390a1505050565b6060610cb68261150f565b9050919050565b6000600560008473ffffffffffffffffffffffffffffffffffffffff1673ffffffffffffffffffffffffffffffffffffffff16815260200190815260200160002060008373ffffffffffffffffffffffffffffffffffffffff1673ffffffffffffffffffffffffffffffffffffffff16815260200190815260200160002060009054906101000a900460ff16905092915050565b600b6020528060005260406000206000915090505481565b600c6020528060005260406000206000915054906101000a900473ffffffffffffffffffffffffffffffffffffffff1681565b6000634906490660e01b7bffffffffffffffffffffffffffffffffffffffffffffffffffffffff1916827bffffffffffffffffffffffffffffffffffffffffffffffffffffffff19161480610df65750610df582611622565b5b9050919050565b610e77838473ffffffffffffffffffffffffffffffffffffffff1663a9059cbb8585604051602401610e30929190612a8b565b604051602081830303815290604052915060e01b6020820180517bffffffffffffffffffffffffffffffffffffffffffffffffffffffff8381831617835250505050611704565b505050565b600080610e88836117a6565b9050600073ffffffffffffffffffffffffffffffffffffffff168173ffffffffffffffffffffffffffffffffffffffff1603610efb57826040517f7e273289000000000000000000000000000000000000000000000000000000008152600401610ef29190612250565b60405180910390fd5b80915050919050565b60006004600083815260200190815260200160002060009054906101000a900473ffffffffffffffffffffffffffffffffffffffff169050919050565b600033905090565b610f5683838360016117e3565b505050565b600080610f67846117a6565b9050600073ffffffffffffffffffffffffffffffffffffffff168373ffffffffffffffffffffffffffffffffffffffff1614610fa957610fa88184866119a8565b5b600073ffffffffffffffffffffffffffffffffffffffff168173ffffffffffffffffffffffffffffffffffffffff161461103a57610feb6000856000806117e3565b6001600360008373ffffffffffffffffffffffffffffffffffffffff1673ffffffffffffffffffffffffffffffffffffffff168152602001908152602001600020600082825403925050819055505b600073ffffffffffffffffffffffffffffffffffffffff168573ffffffffffffffffffffffffffffffffffffffff16146110bd576001600360008773ffffffffffffffffffffffffffffffffffffffff1673ffffffffffffffffffffffffffffffffffffffff168152602001908152602001600020600082825401925050819055505b846002600086815260200190815260200160002060006101000a81548173ffffffffffffffffffffffffffffffffffffffff021916908373ffffffffffffffffffffffffffffffffffffffff160217905550838573ffffffffffffffffffffffffffffffffffffffff168273ffffffffffffffffffffffffffffffffffffffff167fddf252ad1be2c89b69c2b068fc378daa952ba7f163c4a11628f55a4df523b3ef60405160405180910390a4809150509392505050565b600073ffffffffffffffffffffffffffffffffffffffff168273ffffffffffffffffffffffffffffffffffffffff16036111e657816040517f5b08ba180000000000000000000000000000000000000000000000000000000081526004016111dd91906121ba565b60405180910390fd5b80600560008573ffffffffffffffffffffffffffffffffffffffff1673ffffffffffffffffffffffffffffffffffffffff16815260200190815260200160002060008473ffffffffffffffffffffffffffffffffffffffff1673ffffffffffffffffffffffffffffffffffffffff16815260200190815260200160002060006101000a81548160ff0219169083151502179055508173ffffffffffffffffffffffffffffffffffffffff168373ffffffffffffffffffffffffffffffffffffffff167f17307eab39ab6107e8899845ad3d59bd9653f200f220920489ca2b5937696c31836040516112d79190612009565b60405180910390a3505050565b60008373ffffffffffffffffffffffffffffffffffffffff163b111561148e578273ffffffffffffffffffffffffffffffffffffffff1663150b7a02868685856040518563ffffffff1660e01b81526004016113439493929190612b09565b6020604051808303816000875af192505050801561137f57506040513d601f19601f8201168201806040525081019061137c9190612b6a565b60015b611403573d80600081146113af576040519150601f19603f3d011682016040523d82523d6000602084013e6113b4565b606091505b5060008151036113fb57836040517f64a0ae920000000000000000000000000000000000000000000000000000000081526004016113f291906121ba565b60405180910390fd5b805181602001fd5b63150b7a0260e01b7bffffffffffffffffffffffffffffffffffffffffffffffffffffffff1916817bffffffffffffffffffffffffffffffffffffffffffffffffffffffff19161461148c57836040517f64a0ae9200000000000000000000000000000000000000000000000000000000815260040161148391906121ba565b60405180910390fd5b505b5050505050565b6114af828260405180602001604052806000815250611a6c565b5050565b806006600084815260200190815260200160002090816114d39190612d39565b507ff8e1a15aba9398e019f0b49df1a4fde98ee17ae345cb5f6b5e2c27f5033e8ce7826040516115039190612250565b60405180910390a15050565b606061151a82610e7c565b50600060066000848152602001908152602001600020805461153b906128a9565b80601f0160208091040260200160405190810160405280929190818152602001828054611567906128a9565b80156115b45780601f10611589576101008083540402835291602001916115b4565b820191906000526020600020905b81548152906001019060200180831161159757829003601f168201915b5050505050905060006115c5611a90565b905060008151036115da57819250505061161d565b60008251111561160f5780826040516020016115f7929190612e47565b6040516020818303038152906040529250505061161d565b61161884611aa7565b925050505b919050565b60007f80ac58cd000000000000000000000000000000000000000000000000000000007bffffffffffffffffffffffffffffffffffffffffffffffffffffffff1916827bffffffffffffffffffffffffffffffffffffffffffffffffffffffff191614806116ed57507f5b5e139f000000000000000000000000000000000000000000000000000000007bffffffffffffffffffffffffffffffffffffffffffffffffffffffff1916827bffffffffffffffffffffffffffffffffffffffffffffffffffffffff1916145b806116fd57506116fc82611b10565b5b9050919050565b600080602060008451602086016000885af180611727576040513d6000823e3d81fd5b3d92506000519150506000821461174257600181141561175e565b60008473ffffffffffffffffffffffffffffffffffffffff163b145b156117a057836040517f5274afe700000000000000000000000000000000000000000000000000000000815260040161179791906121ba565b60405180910390fd5b50505050565b60006002600083815260200190815260200160002060009054906101000a900473ffffffffffffffffffffffffffffffffffffffff169050919050565b808061181c5750600073ffffffffffffffffffffffffffffffffffffffff168273ffffffffffffffffffffffffffffffffffffffff1614155b1561195057600061182c84610e7c565b9050600073ffffffffffffffffffffffffffffffffffffffff168373ffffffffffffffffffffffffffffffffffffffff161415801561189757508273ffffffffffffffffffffffffffffffffffffffff168173ffffffffffffffffffffffffffffffffffffffff1614155b80156118aa57506118a88184610cbd565b155b156118ec57826040517fa9fbf51f0000000000000000000000000000000000000000000000000000000081526004016118e391906121ba565b60405180910390fd5b811561194e57838573ffffffffffffffffffffffffffffffffffffffff168273ffffffffffffffffffffffffffffffffffffffff167f8c5be1e5ebec7d5bd14f71427d1e84f3dd0314c0f7b2291e5b200ac8c7c3b92560405160405180910390a45b505b836004600085815260200190815260200160002060006101000a81548173ffffffffffffffffffffffffffffffffffffffff021916908373ffffffffffffffffffffffffffffffffffffffff16021790555050505050565b6119b3838383611b7a565b611a6757600073ffffffffffffffffffffffffffffffffffffffff168373ffffffffffffffffffffffffffffffffffffffff1603611a2857806040517f7e273289000000000000000000000000000000000000000000000000000000008152600401611a1f9190612250565b60405180910390fd5b81816040517f177e802f000000000000000000000000000000000000000000000000000000008152600401611a5e929190612a8b565b60405180910390fd5b505050565b611a768383611c3b565b611a8b611a81610f41565b60008585856112e4565b505050565b606060405180602001604052806000815250905090565b6060611ab282610e7c565b506000611abd611a90565b90506000815111611add5760405180602001604052806000815250611b08565b80611ae784611d34565b604051602001611af8929190612e47565b6040516020818303038152906040525b915050919050565b60007f01ffc9a7000000000000000000000000000000000000000000000000000000007bffffffffffffffffffffffffffffffffffffffffffffffffffffffff1916827bffffffffffffffffffffffffffffffffffffffffffffffffffffffff1916149050919050565b60008073ffffffffffffffffffffffffffffffffffffffff168373ffffffffffffffffffffffffffffffffffffffff1614158015611c3257508273ffffffffffffffffffffffffffffffffffffffff168473ffffffffffffffffffffffffffffffffffffffff161480611bf35750611bf28484610cbd565b5b80611c3157508273ffffffffffffffffffffffffffffffffffffffff16611c1983610f04565b73ffffffffffffffffffffffffffffffffffffffff16145b5b90509392505050565b600073ffffffffffffffffffffffffffffffffffffffff168273ffffffffffffffffffffffffffffffffffffffff1603611cad5760006040517f64a0ae92000000000000000000000000000000000000000000000000000000008152600401611ca491906121ba565b60405180910390fd5b6000611cbb83836000610f5b565b9050600073ffffffffffffffffffffffffffffffffffffffff168173ffffffffffffffffffffffffffffffffffffffff1614611d2f5760006040517f73c6ac6e000000000000000000000000000000000000000000000000000000008152600401611d2691906121ba565b60405180910390fd5b505050565b606060006001611d4384611e02565b01905060008167ffffffffffffffff811115611d6257611d616123db565b5b6040519080825280601f01601f191660200182016040528015611d945781602001600182028036833780820191505090505b509050600082602001820190505b600115611df7578080600190039150507f3031323334353637383961626364656600000000000000000000000000000000600a86061a8153600a8581611deb57611dea612e6b565b5b04945060008503611da2575b819350505050919050565b600080600090507a184f03e93ff9f4daa797ed6e38ed64bf6a1f0100000000000000008310611e60577a184f03e93ff9f4daa797ed6e38ed64bf6a1f0100000000000000008381611e5657611e55612e6b565b5b0492506040810190505b6d04ee2d6d415b85acef81000000008310611e9d576d04ee2d6d415b85acef81000000008381611e9357611e92612e6b565b5b0492506020810190505b662386f26fc100008310611ecc57662386f26fc100008381611ec257611ec1612e6b565b5b0492506010810190505b6305f5e1008310611ef5576305f5e1008381611eeb57611eea612e6b565b5b0492506008810190505b6127108310611f1a576127108381611f1057611f0f612e6b565b5b0492506004810190505b60648310611f3d5760648381611f3357611f32612e6b565b5b0492506002810190505b600a8310611f4c576001810190505b80915050919050565b6000604051905090565b600080fd5b600080fd5b60007fffffffff0000000000000000000000000000000000000000000000000000000082169050919050565b611f9e81611f69565b8114611fa957600080fd5b50565b600081359050611fbb81611f95565b92915050565b600060208284031215611fd757611fd6611f5f565b5b6000611fe584828501611fac565b91505092915050565b60008115159050919050565b61200381611fee565b82525050565b600060208201905061201e6000830184611ffa565b92915050565b6000819050919050565b61203781612024565b811461204257600080fd5b50565b6000813590506120548161202e565b92915050565b6000806040838503121561207157612070611f5f565b5b600061207f85828601612045565b925050602061209085828601612045565b9150509250929050565b600081519050919050565b600082825260208201905092915050565b60005b838110156120d45780820151818401526020810190506120b9565b60008484015250505050565b6000601f19601f8301169050919050565b60006120fc8261209a565b61210681856120a5565b93506121168185602086016120b6565b61211f816120e0565b840191505092915050565b6000602082019050818103600083015261214481846120f1565b905092915050565b60006020828403121561216257612161611f5f565b5b600061217084828501612045565b91505092915050565b600073ffffffffffffffffffffffffffffffffffffffff82169050919050565b60006121a482612179565b9050919050565b6121b481612199565b82525050565b60006020820190506121cf60008301846121ab565b92915050565b6121de81612199565b81146121e957600080fd5b50565b6000813590506121fb816121d5565b92915050565b6000806040838503121561221857612217611f5f565b5b6000612226858286016121ec565b925050602061223785828601612045565b9150509250929050565b61224a81612024565b82525050565b60006020820190506122656000830184612241565b92915050565b60008060006060848603121561228457612283611f5f565b5b6000612292868287016121ec565b93505060206122a3868287016121ec565b92505060406122b486828701612045565b9150509250925092565b6000602082840312156122d4576122d3611f5f565b5b60006122e2848285016121ec565b91505092915050565b6000819050919050565b600061231061230b61230684612179565b6122eb565b612179565b9050919050565b6000612322826122f5565b9050919050565b600061233482612317565b9050919050565b61234481612329565b82525050565b600060208201905061235f600083018461233b565b92915050565b61236e81611fee565b811461237957600080fd5b50565b60008135905061238b81612365565b92915050565b600080604083850312156123a8576123a7611f5f565b5b60006123b6858286016121ec565b92505060206123c78582860161237c565b9150509250929050565b600080fd5b600080fd5b7f4e487b7100000000000000000000000000000000000000000000000000000000600052604160045260246000fd5b612413826120e0565b810181811067ffffffffffffffff82111715612432576124316123db565b5b80604052505050565b6000612445611f55565b9050612451828261240a565b919050565b600067ffffffffffffffff821115612471576124706123db565b5b61247a826120e0565b9050602081019050919050565b82818337600083830152505050565b60006124a96124a484612456565b61243b565b9050828152602081018484840111156124c5576124c46123d6565b5b6124d0848285612487565b509392505050565b600082601f8301126124ed576124ec6123d1565b5b81356124fd848260208601612496565b91505092915050565b600080600080608085870312156125205761251f611f5f565b5b600061252e878288016121ec565b945050602061253f878288016121ec565b935050604061255087828801612045565b925050606085013567ffffffffffffffff81111561257157612570611f64565b5b61257d878288016124d8565b91505092959194509250565b600067ffffffffffffffff8211156125a4576125a36123db565b5b6125ad826120e0565b9050602081019050919050565b60006125cd6125c884612589565b61243b565b9050828152602081018484840111156125e9576125e86123d6565b5b6125f4848285612487565b509392505050565b600082601f830112612611576126106123d1565b5b81356126218482602086016125ba565b91505092915050565b6000806040838503121561264157612640611f5f565b5b600061264f858286016121ec565b925050602083013567ffffffffffffffff8111156126705761266f611f64565b5b61267c858286016125fc565b9150509250929050565b6000806040838503121561269d5761269c611f5f565b5b60006126ab858286016121ec565b92505060206126bc858286016121ec565b9150509250929050565b7f4e487b7100000000000000000000000000000000000000000000000000000000600052601160045260246000fd5b600061270082612024565b915061270b83612024565b925082820261271981612024565b915082820484148315176127305761272f6126c6565b5b5092915050565b7f20496e73756666696369656e7420616d6f756e74000000000000000000000000600082015250565b600061276d6014836120a5565b915061277882612737565b602082019050919050565b6000602082019050818103600083015261279c81612760565b9050919050565b7f496e73756666696369656e742071756174697479206f6620746f6b656e000000600082015250565b60006127d9601d836120a5565b91506127e4826127a3565b602082019050919050565b60006020820190508181036000830152612808816127cc565b9050919050565b600061281a82612024565b915061282583612024565b925082820190508082111561283d5761283c6126c6565b5b92915050565b600060608201905061285860008301866121ab565b6128656020830185612241565b6128726040830184612241565b949350505050565b7f4e487b7100000000000000000000000000000000000000000000000000000000600052602260045260246000fd5b600060028204905060018216806128c157607f821691505b6020821081036128d4576128d361287a565b5b50919050565b60006060820190506128ef60008301866121ab565b6128fc6020830185612241565b61290960408301846121ab565b949350505050565b7f496e76616c696420416464726573730000000000000000000000000000000000600082015250565b6000612947600f836120a5565b915061295282612911565b602082019050919050565b600060208201905081810360008301526129768161293a565b9050919050565b7f496e73756666696369656e7420746f6b656e20746f20636c61696d206365727460008201527f6966696361746500000000000000000000000000000000000000000000000000602082015250565b60006129d96027836120a5565b91506129e48261297d565b604082019050919050565b60006020820190508181036000830152612a08816129cc565b9050919050565b6000612a1a82612024565b91507fffffffffffffffffffffffffffffffffffffffffffffffffffffffffffffffff8203612a4c57612a4b6126c6565b5b600182019050919050565b6000612a6282612024565b9150612a6d83612024565b9250828203905081811115612a8557612a846126c6565b5b92915050565b6000604082019050612aa060008301856121ab565b612aad6020830184612241565b9392505050565b600081519050919050565b600082825260208201905092915050565b6000612adb82612ab4565b612ae58185612abf565b9350612af58185602086016120b6565b612afe816120e0565b840191505092915050565b6000608082019050612b1e60008301876121ab565b612b2b60208301866121ab565b612b386040830185612241565b8181036060830152612b4a8184612ad0565b905095945050505050565b600081519050612b6481611f95565b92915050565b600060208284031215612b8057612b7f611f5f565b5b6000612b8e84828501612b55565b91505092915050565b60008190508160005260206000209050919050565b60006020601f8301049050919050565b600082821b905092915050565b600060088302612bf97fffffffffffffffffffffffffffffffffffffffffffffffffffffffffffffffff82612bbc565b612c038683612bbc565b95508019841693508086168417925050509392505050565b6000612c36612c31612c2c84612024565b6122eb565b612024565b9050919050565b6000819050919050565b612c5083612c1b565b612c64612c5c82612c3d565b848454612bc9565b825550505050565b600090565b612c79612c6c565b612c84818484612c47565b505050565b5b81811015612ca857612c9d600082612c71565b600181019050612c8a565b5050565b601f821115612ced57612cbe81612b97565b612cc784612bac565b81016020851015612cd6578190505b612cea612ce285612bac565b830182612c89565b50505b505050565b600082821c905092915050565b6000612d1060001984600802612cf2565b1980831691505092915050565b6000612d298383612cff565b9150826002028217905092915050565b612d428261209a565b67ffffffffffffffff811115612d5b57612d5a6123db565b5b612d6582546128a9565b612d70828285612cac565b600060209050601f831160018114612da35760008415612d91578287015190505b612d9b8582612d1d565b865550612e03565b601f198416612db186612b97565b60005b82811015612dd957848901518255600182019150602085019450602081019050612db4565b86831015612df65784890151612df2601f891682612cff565b8355505b6001600288020188555050505b505050505050565b600081905092915050565b6000612e218261209a565b612e2b8185612e0b565b9350612e3b8185602086016120b6565b80840191505092915050565b6000612e538285612e16565b9150612e5f8284612e16565b91508190509392505050565b7f4e487b7100000000000000000000000000000000000000000000000000000000600052601260045260246000fdfea2646970667358221220efc785c02894dbc0bb4dee81beb0cd5b4566a84cb1b375610ef34e012f195c3e64736f6c634300081b0033",
  "linkReferences": {},
  "deployedLinkReferences": {}
}