{
  "_format": "hh-sol-artifact-1",
  "contractName": "DITToken",
  "sourceName": "contracts/DITToken.sol",
  "abi": [
    {
      "inputs": [
        {
          "internalType": "uint256",
          "name": "_initialSupply",
          "type": "uint256"
        }
      ],
      "stateMutability": "nonpayable",
      "type": "constructor"
    },
    {
      "inputs": [
        {
          "internalType": "address",
          "name": "spender",
          "type": "address"
        },
        {
          "internalType": "uint256",
          "name": "allowance",
          "type": "uint256"
        },
        {
          "internalType": "uint256",
          "name": "needed",
          "type": "uint256"
        }
      ],
      "name": "ERC20InsufficientAllowance",
      "type": "error"
    },
    {
      "inputs": [
        {
          "internalType": "address",
          "name": "sender",
          "type": "address"
        },
        {
          "internalType": "uint256",
          "name": "balance",
          "type": "uint256"
        },
        {
          "internalType": "uint256",
          "name": "needed",
          "type": "uint256"
        }
      ],
      "name": "ERC20InsufficientBalance",
      "type": "error"
    },
    {
      "inputs": [
        {
          "internalType": "address",
          "name": "approver",
          "type": "address"
        }
      ],
      "name": "ERC20InvalidApprover",
      "type": "error"
    },
    {
      "inputs": [
        {
          "internalType": "address",
          "name": "receiver",
          "type": "address"
        }
      ],
      "name": "ERC20InvalidReceiver",
      "type": "error"
    },
    {
      "inputs": [
        {
          "internalType": "address",
          "name": "sender",
          "type": "address"
        }
      ],
      "name": "ERC20InvalidSender",
      "type": "error"
    },
    {
      "inputs": [
        {
          "internalType": "address",
          "name": "spender",
          "type": "address"
        }
      ],
      "name": "ERC20InvalidSpender",
      "type": "error"
    },
    {
      "anonymous": false,
      "inputs": [
        {
          "indexed": true,
          "internalType": "address",
          "name": "owner",
          "type": "address"
        },
        {
          "indexed": true,
          "internalType": "address",
          "name": "spender",
          "type": "address"
        },
        {
          "indexed": false,
          "internalType": "uint256",
          "name": "value",
          "type": "uint256"
        }
      ],
      "name": "Approval",
      "type": "event"
    },
    {
      "anonymous": false,
      "inputs": [
        {
          "indexed": true,
          "internalType": "address",
          "name": "from",
          "type": "address"
        },
        {
          "indexed": true,
          "internalType": "address",
          "name": "to",
          "type": "address"
        },
        {
          "indexed": false,
          "internalType": "uint256",
          "name": "value",
          "type": "uint256"
        }
      ],
      "name": "Transfer",
      "type": "event"
    },
    {
      "inputs": [
        {
          "internalType": "address",
          "name": "_owner",
          "type": "address"
        },
        {
          "internalType": "address",
          "name": "_spender",
          "type": "address"
        }
      ],
      "name": "allowance",
      "outputs": [
        {
          "internalType": "uint256",
          "name": "",
          "type": "uint256"
        }
      ],
      "stateMutability": "view",
      "type": "function"
    },
    {
      "inputs": [
        {
          "internalType": "address",
          "name": "",
          "type": "address"
        },
        {
          "internalType": "address",
          "name": "",
          "type": "address"
        }
      ],
      "name": "allowances",
      "outputs": [
        {
          "internalType": "uint256",
          "name": "",
          "type": "uint256"
        }
      ],
      "stateMutability": "view",
      "type": "function"
    },
    {
      "inputs": [
        {
          "internalType": "address",
          "name": "spender",
          "type": "address"
        },
        {
          "internalType": "uint256",
          "name": "value",
          "type": "uint256"
        }
      ],
      "name": "approve",
      "outputs": [
        {
          "internalType": "bool",
          "name": "",
          "type": "bool"
        }
      ],
      "stateMutability": "nonpayable",
      "type": "function"
    },
    {
      "inputs": [
        {
          "internalType": "address",
          "name": "account",
          "type": "address"
        }
      ],
      "name": "balanceOf",
      "outputs": [
        {
          "internalType": "uint256",
          "name": "",
          "type": "uint256"
        }
      ],
      "stateMutability": "view",
      "type": "function"
    },
    {
      "inputs": [],
      "name": "decimals",
      "outputs": [
        {
          "internalType": "uint8",
          "name": "",
          "type": "uint8"
        }
      ],
      "stateMutability": "pure",
      "type": "function"
    },
    {
      "inputs": [],
      "name": "initialSupply",
      "outputs": [
        {
          "internalType": "uint256",
          "name": "",
          "type": "uint256"
        }
      ],
      "stateMutability": "view",
      "type": "function"
    },
    {
      "inputs": [],
      "name": "name",
      "outputs": [
        {
          "internalType": "string",
          "name": "",
          "type": "string"
        }
      ],
      "stateMutability": "view",
      "type": "function"
    },
    {
      "inputs": [],
      "name": "owner",
      "outputs": [
        {
          "internalType": "address",
          "name": "",
          "type": "address"
        }
      ],
      "stateMutability": "view",
      "type": "function"
    },
    {
      "inputs": [],
      "name": "symbol",
      "outputs": [
        {
          "internalType": "string",
          "name": "",
          "type": "string"
        }
      ],
      "stateMutability": "view",
      "type": "function"
    },
    {
      "inputs": [],
      "name": "totalSupply",
      "outputs": [
        {
          "internalType": "uint256",
          "name": "",
          "type": "uint256"
        }
      ],
      "stateMutability": "view",
      "type": "function"
    },
    {
      "inputs": [
        {
          "internalType": "address",
          "name": "to",
          "type": "address"
        },
        {
          "internalType": "uint256",
          "name": "value",
          "type": "uint256"
        }
      ],
      "name": "transfer",
      "outputs": [
        {
          "internalType": "bool",
          "name": "",
          "type": "bool"
        }
      ],
      "stateMutability": "nonpayable",
      "type": "function"
    },
    {
      "inputs": [
        {
          "internalType": "address",
          "name": "from",
          "type": "address"
        },
        {
          "internalType": "address",
          "name": "to",
          "type": "address"
        },
        {
          "internalType": "uint256",
          "name": "value",
          "type": "uint256"
        }
      ],
      "name": "transferFrom",
      "outputs": [
        {
          "internalType": "bool",
          "name": "",
          "type": "bool"
        }
      ],
      "stateMutability": "nonpayable",
      "type": "function"
    }
  ],
  "bytecode": "0x608060405234801561001057600080fd5b50604051611af5380380611af58339818101604052810190610032919061042a565b6040518060400160405280601581526020017f4465677265652049737375616e636520544f6b656e00000000000000000000008152506040518060400160405280600381526020017f444954000000000000000000000000000000000000000000000000000000000081525081600390816100ad919061069d565b5080600490816100bd919061069d565b5050508060068190555033600560006101000a81548173ffffffffffffffffffffffffffffffffffffffff021916908373ffffffffffffffffffffffffffffffffffffffff16021790555061013c600560009054906101000a900473ffffffffffffffffffffffffffffffffffffffff1660065461014260201b60201c565b5061088f565b600073ffffffffffffffffffffffffffffffffffffffff168273ffffffffffffffffffffffffffffffffffffffff16036101b45760006040517fec442f050000000000000000000000000000000000000000000000000000000081526004016101ab91906107b0565b60405180910390fd5b6101c6600083836101ca60201b60201c565b5050565b600073ffffffffffffffffffffffffffffffffffffffff168373ffffffffffffffffffffffffffffffffffffffff160361021c57806002600082825461021091906107fa565b925050819055506102ef565b60008060008573ffffffffffffffffffffffffffffffffffffffff1673ffffffffffffffffffffffffffffffffffffffff168152602001908152602001600020549050818110156102a8578381836040517fe450d38c00000000000000000000000000000000000000000000000000000000815260040161029f9392919061083d565b60405180910390fd5b8181036000808673ffffffffffffffffffffffffffffffffffffffff1673ffffffffffffffffffffffffffffffffffffffff16815260200190815260200160002081905550505b600073ffffffffffffffffffffffffffffffffffffffff168273ffffffffffffffffffffffffffffffffffffffff16036103385780600260008282540392505081905550610385565b806000808473ffffffffffffffffffffffffffffffffffffffff1673ffffffffffffffffffffffffffffffffffffffff168152602001908152602001600020600082825401925050819055505b8173ffffffffffffffffffffffffffffffffffffffff168373ffffffffffffffffffffffffffffffffffffffff167fddf252ad1be2c89b69c2b068fc378daa952ba7f163c4a11628f55a4df523b3ef836040516103e29190610874565b60405180910390a3505050565b600080fd5b6000819050919050565b610407816103f4565b811461041257600080fd5b50565b600081519050610424816103fe565b92915050565b6000602082840312156104405761043f6103ef565b5b600061044e84828501610415565b91505092915050565b600081519050919050565b7f4e487b7100000000000000000000000000000000000000000000000000000000600052604160045260246000fd5b7f4e487b7100000000000000000000000000000000000000000000000000000000600052602260045260246000fd5b600060028204905060018216806104d857607f821691505b6020821081036104eb576104ea610491565b5b50919050565b60008190508160005260206000209050919050565b60006020601f8301049050919050565b600082821b905092915050565b6000600883026105537fffffffffffffffffffffffffffffffffffffffffffffffffffffffffffffffff82610516565b61055d8683610516565b95508019841693508086168417925050509392505050565b6000819050919050565b600061059a610595610590846103f4565b610575565b6103f4565b9050919050565b6000819050919050565b6105b48361057f565b6105c86105c0826105a1565b848454610523565b825550505050565b600090565b6105dd6105d0565b6105e88184846105ab565b505050565b5b8181101561060c576106016000826105d5565b6001810190506105ee565b5050565b601f82111561065157610622816104f1565b61062b84610506565b8101602085101561063a578190505b61064e61064685610506565b8301826105ed565b50505b505050565b600082821c905092915050565b600061067460001984600802610656565b1980831691505092915050565b600061068d8383610663565b9150826002028217905092915050565b6106a682610457565b67ffffffffffffffff8111156106bf576106be610462565b5b6106c982546104c0565b6106d4828285610610565b600060209050601f83116001811461070757600084156106f5578287015190505b6106ff8582610681565b865550610767565b601f198416610715866104f1565b60005b8281101561073d57848901518255600182019150602085019450602081019050610718565b8683101561075a5784890151610756601f891682610663565b8355505b6001600288020188555050505b505050505050565b600073ffffffffffffffffffffffffffffffffffffffff82169050919050565b600061079a8261076f565b9050919050565b6107aa8161078f565b82525050565b60006020820190506107c560008301846107a1565b92915050565b7f4e487b7100000000000000000000000000000000000000000000000000000000600052601160045260246000fd5b6000610805826103f4565b9150610810836103f4565b9250828201905080821115610828576108276107cb565b5b92915050565b610837816103f4565b82525050565b600060608201905061085260008301866107a1565b61085f602083018561082e565b61086c604083018461082e565b949350505050565b6000602082019050610889600083018461082e565b92915050565b6112578061089e6000396000f3fe608060405234801561001057600080fd5b50600436106100b45760003560e01c806355b6ed5c1161007157806355b6ed5c1461019157806370a08231146101c15780638da5cb5b146101f157806395d89b411461020f578063a9059cbb1461022d578063dd62ed3e1461025d576100b4565b806306fdde03146100b9578063095ea7b3146100d757806318160ddd1461010757806323b872dd14610125578063313ce56714610155578063378dc3dc14610173575b600080fd5b6100c161028d565b6040516100ce9190610dd3565b60405180910390f35b6100f160048036038101906100ec9190610e8e565b61031f565b6040516100fe9190610ee9565b60405180910390f35b61010f610510565b60405161011c9190610f13565b60405180910390f35b61013f600480360381019061013a9190610f2e565b61051a565b60405161014c9190610ee9565b60405180910390f35b61015d610549565b60405161016a9190610f9d565b60405180910390f35b61017b610552565b6040516101889190610f13565b60405180910390f35b6101ab60048036038101906101a69190610fb8565b610558565b6040516101b89190610f13565b60405180910390f35b6101db60048036038101906101d69190610ff8565b61057d565b6040516101e89190610f13565b60405180910390f35b6101f96105c5565b6040516102069190611034565b60405180910390f35b6102176105eb565b6040516102249190610dd3565b60405180910390f35b61024760048036038101906102429190610e8e565b61067d565b6040516102549190610ee9565b60405180910390f35b61027760048036038101906102729190610fb8565b6106a0565b6040516102849190610f13565b60405180910390f35b60606003805461029c9061107e565b80601f01602080910402602001604051908101604052809291908181526020018280546102c89061107e565b80156103155780601f106102ea57610100808354040283529160200191610315565b820191906000526020600020905b8154815290600101906020018083116102f857829003601f168201915b5050505050905090565b60003373ffffffffffffffffffffffffffffffffffffffff16600560009054906101000a900473ffffffffffffffffffffffffffffffffffffffff1673ffffffffffffffffffffffffffffffffffffffff16146103b1576040517f08c379a00000000000000000000000000000000000000000000000000000000081526004016103a8906110fb565b60405180910390fd5b600073ffffffffffffffffffffffffffffffffffffffff168373ffffffffffffffffffffffffffffffffffffffff1603610420576040517f08c379a000000000000000000000000000000000000000000000000000000000815260040161041790611167565b60405180910390fd5b81600760003373ffffffffffffffffffffffffffffffffffffffff1673ffffffffffffffffffffffffffffffffffffffff16815260200190815260200160002060008573ffffffffffffffffffffffffffffffffffffffff1673ffffffffffffffffffffffffffffffffffffffff168152602001908152602001600020819055508273ffffffffffffffffffffffffffffffffffffffff163373ffffffffffffffffffffffffffffffffffffffff167f8c5be1e5ebec7d5bd14f71427d1e84f3dd0314c0f7b2291e5b200ac8c7c3b925846040516104fe9190610f13565b60405180910390a36001905092915050565b6000600254905090565b6000806105256107b7565b90506105328582856107bf565b61053d858585610853565b60019150509392505050565b60006012905090565b60065481565b6007602052816000526040600020602052806000526040600020600091509150505481565b60008060008373ffffffffffffffffffffffffffffffffffffffff1673ffffffffffffffffffffffffffffffffffffffff168152602001908152602001600020549050919050565b600560009054906101000a900473ffffffffffffffffffffffffffffffffffffffff1681565b6060600480546105fa9061107e565b80601f01602080910402602001604051908101604052809291908181526020018280546106269061107e565b80156106735780601f1061064857610100808354040283529160200191610673565b820191906000526020600020905b81548152906001019060200180831161065657829003601f168201915b5050505050905090565b6000806106886107b7565b9050610695818585610853565b600191505092915050565b60003373ffffffffffffffffffffffffffffffffffffffff16600560009054906101000a900473ffffffffffffffffffffffffffffffffffffffff1673ffffffffffffffffffffffffffffffffffffffff1614610732576040517f08c379a0000000000000000000000000000000000000000000000000000000008152600401610729906110fb565b60405180910390fd5b600760008473ffffffffffffffffffffffffffffffffffffffff1673ffffffffffffffffffffffffffffffffffffffff16815260200190815260200160002060008373ffffffffffffffffffffffffffffffffffffffff1673ffffffffffffffffffffffffffffffffffffffff16815260200190815260200160002054905092915050565b600033905090565b60006107cb84846106a0565b90507fffffffffffffffffffffffffffffffffffffffffffffffffffffffffffffffff811461084d578181101561083d578281836040517ffb8f41b200000000000000000000000000000000000000000000000000000000815260040161083493929190611187565b60405180910390fd5b61084c84848484036000610947565b5b50505050565b600073ffffffffffffffffffffffffffffffffffffffff168373ffffffffffffffffffffffffffffffffffffffff16036108c55760006040517f96c6fd1e0000000000000000000000000000000000000000000000000000000081526004016108bc9190611034565b60405180910390fd5b600073ffffffffffffffffffffffffffffffffffffffff168273ffffffffffffffffffffffffffffffffffffffff16036109375760006040517fec442f0500000000000000000000000000000000000000000000000000000000815260040161092e9190611034565b60405180910390fd5b610942838383610b1e565b505050565b600073ffffffffffffffffffffffffffffffffffffffff168473ffffffffffffffffffffffffffffffffffffffff16036109b95760006040517fe602df050000000000000000000000000000000000000000000000000000000081526004016109b09190611034565b60405180910390fd5b600073ffffffffffffffffffffffffffffffffffffffff168373ffffffffffffffffffffffffffffffffffffffff1603610a2b5760006040517f94280d62000000000000000000000000000000000000000000000000000000008152600401610a229190611034565b60405180910390fd5b81600160008673ffffffffffffffffffffffffffffffffffffffff1673ffffffffffffffffffffffffffffffffffffffff16815260200190815260200160002060008573ffffffffffffffffffffffffffffffffffffffff1673ffffffffffffffffffffffffffffffffffffffff168152602001908152602001600020819055508015610b18578273ffffffffffffffffffffffffffffffffffffffff168473ffffffffffffffffffffffffffffffffffffffff167f8c5be1e5ebec7d5bd14f71427d1e84f3dd0314c0f7b2291e5b200ac8c7c3b92584604051610b0f9190610f13565b60405180910390a35b50505050565b600073ffffffffffffffffffffffffffffffffffffffff168373ffffffffffffffffffffffffffffffffffffffff1603610b70578060026000828254610b6491906111ed565b92505081905550610c43565b60008060008573ffffffffffffffffffffffffffffffffffffffff1673ffffffffffffffffffffffffffffffffffffffff16815260200190815260200160002054905081811015610bfc578381836040517fe450d38c000000000000000000000000000000000000000000000000000000008152600401610bf393929190611187565b60405180910390fd5b8181036000808673ffffffffffffffffffffffffffffffffffffffff1673ffffffffffffffffffffffffffffffffffffffff16815260200190815260200160002081905550505b600073ffffffffffffffffffffffffffffffffffffffff168273ffffffffffffffffffffffffffffffffffffffff1603610c8c5780600260008282540392505081905550610cd9565b806000808473ffffffffffffffffffffffffffffffffffffffff1673ffffffffffffffffffffffffffffffffffffffff168152602001908152602001600020600082825401925050819055505b8173ffffffffffffffffffffffffffffffffffffffff168373ffffffffffffffffffffffffffffffffffffffff167fddf252ad1be2c89b69c2b068fc378daa952ba7f163c4a11628f55a4df523b3ef83604051610d369190610f13565b60405180910390a3505050565b600081519050919050565b600082825260208201905092915050565b60005b83811015610d7d578082015181840152602081019050610d62565b60008484015250505050565b6000601f19601f8301169050919050565b6000610da582610d43565b610daf8185610d4e565b9350610dbf818560208601610d5f565b610dc881610d89565b840191505092915050565b60006020820190508181036000830152610ded8184610d9a565b905092915050565b600080fd5b600073ffffffffffffffffffffffffffffffffffffffff82169050919050565b6000610e2582610dfa565b9050919050565b610e3581610e1a565b8114610e4057600080fd5b50565b600081359050610e5281610e2c565b92915050565b6000819050919050565b610e6b81610e58565b8114610e7657600080fd5b50565b600081359050610e8881610e62565b92915050565b60008060408385031215610ea557610ea4610df5565b5b6000610eb385828601610e43565b9250506020610ec485828601610e79565b9150509250929050565b60008115159050919050565b610ee381610ece565b82525050565b6000602082019050610efe6000830184610eda565b92915050565b610f0d81610e58565b82525050565b6000602082019050610f286000830184610f04565b92915050565b600080600060608486031215610f4757610f46610df5565b5b6000610f5586828701610e43565b9350506020610f6686828701610e43565b9250506040610f7786828701610e79565b9150509250925092565b600060ff82169050919050565b610f9781610f81565b82525050565b6000602082019050610fb26000830184610f8e565b92915050565b60008060408385031215610fcf57610fce610df5565b5b6000610fdd85828601610e43565b9250506020610fee85828601610e43565b9150509250929050565b60006020828403121561100e5761100d610df5565b5b600061101c84828501610e43565b91505092915050565b61102e81610e1a565b82525050565b60006020820190506110496000830184611025565b92915050565b7f4e487b7100000000000000000000000000000000000000000000000000000000600052602260045260246000fd5b6000600282049050600182168061109657607f821691505b6020821081036110a9576110a861104f565b5b50919050565b7f59707520617265206e6f74206f776e6572000000000000000000000000000000600082015250565b60006110e5601183610d4e565b91506110f0826110af565b602082019050919050565b60006020820190508181036000830152611114816110d8565b9050919050565b7f496e76616c696420616464726573730000000000000000000000000000000000600082015250565b6000611151600f83610d4e565b915061115c8261111b565b602082019050919050565b6000602082019050818103600083015261118081611144565b9050919050565b600060608201905061119c6000830186611025565b6111a96020830185610f04565b6111b66040830184610f04565b949350505050565b7f4e487b7100000000000000000000000000000000000000000000000000000000600052601160045260246000fd5b60006111f882610e58565b915061120383610e58565b925082820190508082111561121b5761121a6111be565b5b9291505056fea264697066735822122082afe62f619f50c7304a9f0762744cdacb62804c5f99a7a45b276f752183f33464736f6c634300081b0033",
  "linkReferences": {},
  "deployedLinkReferences": {}
}